{
  "_format": "hh-sol-artifact-1",
  "contractName": "Voting",
  "sourceName": "contracts/Voting.sol",
  "abi": [
    {
      "anonymous": false,
      "inputs": [
        {
          "indexed": true,
          "internalType": "address",
          "name": "previousOwner",
          "type": "address"
        },
        {
          "indexed": true,
          "internalType": "address",
          "name": "newOwner",
          "type": "address"
        }
      ],
      "name": "OwnershipTransferred",
      "type": "event"
    },
    {
      "inputs": [],
      "name": "normalThing",
      "outputs": [],
      "stateMutability": "nonpayable",
      "type": "function"
    },
    {
      "inputs": [],
      "name": "owner",
      "outputs": [
        {
          "internalType": "address",
          "name": "",
          "type": "address"
        }
      ],
      "stateMutability": "view",
      "type": "function"
    },
    {
      "inputs": [],
      "name": "renounceOwnership",
      "outputs": [],
      "stateMutability": "nonpayable",
      "type": "function"
    },
    {
      "inputs": [],
      "name": "specialThing",
      "outputs": [],
      "stateMutability": "nonpayable",
      "type": "function"
    },
    {
      "inputs": [
        {
          "internalType": "address",
          "name": "newOwner",
          "type": "address"
        }
      ],
      "name": "transferOwnership",
      "outputs": [],
      "stateMutability": "nonpayable",
      "type": "function"
    }
  ],
  "bytecode": "0x608060405234801561001057600080fd5b5061002d61002261003260201b60201c565b61003a60201b60201c565b6100fe565b600033905090565b60008060009054906101000a900473ffffffffffffffffffffffffffffffffffffffff169050816000806101000a81548173ffffffffffffffffffffffffffffffffffffffff021916908373ffffffffffffffffffffffffffffffffffffffff1602179055508173ffffffffffffffffffffffffffffffffffffffff168173ffffffffffffffffffffffffffffffffffffffff167f8be0079c531659141344cd1fd0a4f28419497f9722a3daafe3b4186f6b6457e060405160405180910390a35050565b6104c98061010d6000396000f3fe608060405234801561001057600080fd5b50600436106100575760003560e01c8063163e1d931461005c57806335fea8c914610066578063715018a6146100705780638da5cb5b1461007a578063f2fde38b14610098575b600080fd5b6100646100b4565b005b61006e6100b6565b005b6100786100c0565b005b6100826100d4565b60405161008f919061030b565b60405180910390f35b6100b260048036038101906100ad9190610357565b6100fd565b005b565b6100be610180565b565b6100c8610180565b6100d260006101fe565b565b60008060009054906101000a900473ffffffffffffffffffffffffffffffffffffffff16905090565b610105610180565b600073ffffffffffffffffffffffffffffffffffffffff168173ffffffffffffffffffffffffffffffffffffffff1603610174576040517f08c379a000000000000000000000000000000000000000000000000000000000815260040161016b90610407565b60405180910390fd5b61017d816101fe565b50565b6101886102c2565b73ffffffffffffffffffffffffffffffffffffffff166101a66100d4565b73ffffffffffffffffffffffffffffffffffffffff16146101fc576040517f08c379a00000000000000000000000000000000000000000000000000000000081526004016101f390610473565b60405180910390fd5b565b60008060009054906101000a900473ffffffffffffffffffffffffffffffffffffffff169050816000806101000a81548173ffffffffffffffffffffffffffffffffffffffff021916908373ffffffffffffffffffffffffffffffffffffffff1602179055508173ffffffffffffffffffffffffffffffffffffffff168173ffffffffffffffffffffffffffffffffffffffff167f8be0079c531659141344cd1fd0a4f28419497f9722a3daafe3b4186f6b6457e060405160405180910390a35050565b600033905090565b600073ffffffffffffffffffffffffffffffffffffffff82169050919050565b60006102f5826102ca565b9050919050565b610305816102ea565b82525050565b600060208201905061032060008301846102fc565b92915050565b600080fd5b610334816102ea565b811461033f57600080fd5b50565b6000813590506103518161032b565b92915050565b60006020828403121561036d5761036c610326565b5b600061037b84828501610342565b91505092915050565b600082825260208201905092915050565b7f4f776e61626c653a206e6577206f776e657220697320746865207a65726f206160008201527f6464726573730000000000000000000000000000000000000000000000000000602082015250565b60006103f1602683610384565b91506103fc82610395565b604082019050919050565b60006020820190508181036000830152610420816103e4565b9050919050565b7f4f776e61626c653a2063616c6c6572206973206e6f7420746865206f776e6572600082015250565b600061045d602083610384565b915061046882610427565b602082019050919050565b6000602082019050818103600083015261048c81610450565b905091905056fea2646970667358221220e3873d3ffd2f1b51afe959ef7571c3c6f25aa20e78acc69571860941f947af3264736f6c63430008110033",
  "linkReferences": {},
  "deployedLinkReferences": {}
}