{
  "_format": "hh-sol-artifact-1",
  "contractName": "Voting",
  "sourceName": "contracts/Voting.sol",
  "abi": [
    {
      "inputs": [],
      "stateMutability": "nonpayable",
      "type": "constructor"
    },
    {
      "anonymous": false,
      "inputs": [
        {
          "indexed": false,
          "internalType": "address",
          "name": "creator",
          "type": "address"
        },
        {
          "indexed": false,
          "internalType": "string",
          "name": "votingName",
          "type": "string"
        },
        {
          "indexed": false,
          "internalType": "uint256",
          "name": "id",
          "type": "uint256"
        }
      ],
      "name": "AddAnVotingEvent",
      "type": "event"
    },
    {
      "anonymous": false,
      "inputs": [
        {
          "indexed": false,
          "internalType": "uint256",
          "name": "votingId",
          "type": "uint256"
        },
        {
          "indexed": false,
          "internalType": "string",
          "name": "nameCandidate",
          "type": "string"
        }
      ],
      "name": "AddCandidateEvent",
      "type": "event"
    },
    {
      "anonymous": false,
      "inputs": [
        {
          "indexed": false,
          "internalType": "address",
          "name": "ownerAddress",
          "type": "address"
        }
      ],
      "name": "DeployedOwnerEvent",
      "type": "event"
    },
    {
      "anonymous": false,
      "inputs": [
        {
          "components": [
            {
              "internalType": "string",
              "name": "name",
              "type": "string"
            },
            {
              "internalType": "uint256",
              "name": "id",
              "type": "uint256"
            },
            {
              "internalType": "uint256",
              "name": "voteCounter",
              "type": "uint256"
            },
            {
              "internalType": "uint256",
              "name": "position",
              "type": "uint256"
            }
          ],
          "indexed": false,
          "internalType": "struct Voting.Candidate[]",
          "name": "candidates",
          "type": "tuple[]"
        }
      ],
      "name": "RecalculationPositionsEvent",
      "type": "event"
    },
    {
      "anonymous": false,
      "inputs": [
        {
          "indexed": false,
          "internalType": "uint256",
          "name": "candidateId",
          "type": "uint256"
        }
      ],
      "name": "RemoveCandidateEvent",
      "type": "event"
    },
    {
      "anonymous": false,
      "inputs": [
        {
          "indexed": false,
          "internalType": "uint256",
          "name": "votingId",
          "type": "uint256"
        }
      ],
      "name": "RemoveVotingEvent",
      "type": "event"
    },
    {
      "anonymous": false,
      "inputs": [
        {
          "indexed": false,
          "internalType": "enum Voting.StagesOfVoting",
          "name": "stagesOfVoting",
          "type": "uint8"
        },
        {
          "indexed": false,
          "internalType": "uint256",
          "name": "startTime",
          "type": "uint256"
        },
        {
          "indexed": false,
          "internalType": "uint256",
          "name": "finishTime",
          "type": "uint256"
        }
      ],
      "name": "StartVotingEvent",
      "type": "event"
    },
    {
      "anonymous": false,
      "inputs": [
        {
          "indexed": false,
          "internalType": "uint256",
          "name": "candidateId",
          "type": "uint256"
        },
        {
          "indexed": false,
          "internalType": "uint256",
          "name": "voterId",
          "type": "uint256"
        },
        {
          "indexed": false,
          "internalType": "uint256",
          "name": "candidateVoteCounter",
          "type": "uint256"
        }
      ],
      "name": "ToVoteEvent",
      "type": "event"
    },
    {
      "inputs": [
        {
          "internalType": "uint256",
          "name": "_votingId",
          "type": "uint256"
        },
        {
          "internalType": "string",
          "name": "_nameCandidate",
          "type": "string"
        }
      ],
      "name": "addCandidate",
      "outputs": [
        {
          "internalType": "uint256",
          "name": "",
          "type": "uint256"
        }
      ],
      "stateMutability": "nonpayable",
      "type": "function"
    },
    {
      "inputs": [
        {
          "internalType": "string",
          "name": "_nameVoting",
          "type": "string"
        },
        {
          "internalType": "enum Voting.TypeOfVoting",
          "name": "_votingType",
          "type": "uint8"
        }
      ],
      "name": "createVoting",
      "outputs": [
        {
          "internalType": "uint256",
          "name": "",
          "type": "uint256"
        }
      ],
      "stateMutability": "nonpayable",
      "type": "function"
    },
    {
      "inputs": [
        {
          "internalType": "uint256",
          "name": "_votingId",
          "type": "uint256"
        }
      ],
      "name": "finishVoting",
      "outputs": [
        {
          "components": [
            {
              "internalType": "string",
              "name": "name",
              "type": "string"
            },
            {
              "internalType": "uint256",
              "name": "id",
              "type": "uint256"
            },
            {
              "internalType": "uint256",
              "name": "voteCounter",
              "type": "uint256"
            },
            {
              "internalType": "uint256",
              "name": "position",
              "type": "uint256"
            }
          ],
          "internalType": "struct Voting.Candidate[]",
          "name": "",
          "type": "tuple[]"
        }
      ],
      "stateMutability": "nonpayable",
      "type": "function"
    },
    {
      "inputs": [
        {
          "internalType": "uint256",
          "name": "_votingId",
          "type": "uint256"
        },
        {
          "internalType": "uint256",
          "name": "_candidateId",
          "type": "uint256"
        }
      ],
      "name": "removeCandidate",
      "outputs": [],
      "stateMutability": "nonpayable",
      "type": "function"
    },
    {
      "inputs": [
        {
          "internalType": "uint256",
          "name": "_votingId",
          "type": "uint256"
        }
      ],
      "name": "removeVoting",
      "outputs": [],
      "stateMutability": "nonpayable",
      "type": "function"
    },
    {
      "inputs": [
        {
          "internalType": "uint256",
          "name": "_votingId",
          "type": "uint256"
        },
        {
          "internalType": "uint256",
          "name": "finishTime",
          "type": "uint256"
        }
      ],
      "name": "startVoting",
      "outputs": [],
      "stateMutability": "nonpayable",
      "type": "function"
    },
    {
      "inputs": [
        {
          "internalType": "uint256",
          "name": "_votingId",
          "type": "uint256"
        },
        {
          "internalType": "uint256",
          "name": "_candidateId",
          "type": "uint256"
        }
      ],
      "name": "toVote",
      "outputs": [
        {
          "components": [
            {
              "internalType": "string",
              "name": "name",
              "type": "string"
            },
            {
              "internalType": "uint256",
              "name": "id",
              "type": "uint256"
            },
            {
              "internalType": "uint256",
              "name": "voteCounter",
              "type": "uint256"
            },
            {
              "internalType": "uint256",
              "name": "position",
              "type": "uint256"
            }
          ],
          "internalType": "struct Voting.Candidate[]",
          "name": "",
          "type": "tuple[]"
        },
        {
          "internalType": "uint256",
          "name": "",
          "type": "uint256"
        }
      ],
      "stateMutability": "nonpayable",
      "type": "function"
    }
  ],
  "bytecode": "0x60806040526000600155600060025560006003553480156200002057600080fd5b50336000806101000a81548173ffffffffffffffffffffffffffffffffffffffff021916908373ffffffffffffffffffffffffffffffffffffffff1602179055507f322241bf75f4ac490909c070268a9a8bb209f87220238d7922d1378290ffe0f160008054906101000a900473ffffffffffffffffffffffffffffffffffffffff16604051620000b2919062000105565b60405180910390a162000122565b600073ffffffffffffffffffffffffffffffffffffffff82169050919050565b6000620000ed82620000c0565b9050919050565b620000ff81620000e0565b82525050565b60006020820190506200011c6000830184620000f4565b92915050565b61233f80620001326000396000f3fe608060405234801561001057600080fd5b506004361061007d5760003560e01c806390fe56091161005b57806390fe560914610113578063abe7c08e1461012f578063e61452fc1461015f578063fa901afa1461017b5761007d565b80631750a3d0146100825780632438f244146100b257806357f1dbce146100e3575b600080fd5b61009c600480360381019061009791906116e5565b610197565b6040516100a99190611750565b60405180910390f35b6100cc60048036038101906100c7919061176b565b6104d3565b6040516100da92919061195e565b60405180910390f35b6100fd60048036038101906100f891906119b3565b61081d565b60405161010a9190611750565b60405180910390f35b61012d6004803603810190610128919061176b565b610a34565b005b61014960048036038101906101449190611a0f565b610c4f565b6040516101569190611a3c565b60405180910390f35b61017960048036038101906101749190611a0f565b610d2c565b005b6101956004803603810190610190919061176b565b610eb5565b005b6000823373ffffffffffffffffffffffffffffffffffffffff166005600083815260200190815260200160002060009054906101000a900473ffffffffffffffffffffffffffffffffffffffff1673ffffffffffffffffffffffffffffffffffffffff161461023b576040517f08c379a000000000000000000000000000000000000000000000000000000000815260040161023290611abb565b60405180910390fd5b83600060028111156102505761024f611adb565b5b6004600083815260200190815260200160002060020160019054906101000a900460ff16600281111561028657610285611adb565b5b146102c6576040517f08c379a00000000000000000000000000000000000000000000000000000000081526004016102bd90611b7c565b60405180910390fd5b6103e860066000878152602001908152602001600020805480602002602001604051908101604052809291908181526020016000905b828210156103de578382906000526020600020906004020160405180608001604052908160008201805461032f90611bcb565b80601f016020809104026020016040519081016040528092919081815260200182805461035b90611bcb565b80156103a85780601f1061037d576101008083540402835291602001916103a8565b820191906000526020600020905b81548152906001019060200180831161038b57829003601f168201915b505050505081526020016001820154815260200160028201548152602001600382015481525050815260200190600101906102fc565b50505050856110bb565b60405180608001604052808581526020016002548152602001600081526020016000815250600660008781526020019081526020016000206002548154811061043457610433611bfc565b5b906000526020600020906004020160008201518160000190816104579190611dd7565b506020820151816001015560408201518160020155606082015181600301559050507f160aeed798f99578d28746e86163e89a8fa871c5e565e1d7e69c52e7721d778d85856040516104aa929190611ee2565b60405180910390a1600260008154809291906104c590611f41565b919050559250505092915050565b6060600083600160028111156104ec576104eb611adb565b5b6004600083815260200190815260200160002060020160019054906101000a900460ff16600281111561052257610521611adb565b5b14610562576040517f08c379a000000000000000000000000000000000000000000000000000000000815260040161055990611ffb565b60405180910390fd5b84426004600083815260200190815260200160002060040154106105bb576040517f08c379a00000000000000000000000000000000000000000000000000000000081526004016105b290612067565b60405180910390fd5b60405180606001604052803373ffffffffffffffffffffffffffffffffffffffff168152602001600354815260200160011515815250600860008881526020019081526020016000206003548154811061061857610617611bfc565b5b906000526020600020906003020160008201518160000160006101000a81548173ffffffffffffffffffffffffffffffffffffffff021916908373ffffffffffffffffffffffffffffffffffffffff1602179055506020820151816001015560408201518160020160006101000a81548160ff02191690831515021790555090505060405180606001604052803373ffffffffffffffffffffffffffffffffffffffff16815260200160035481526020016001151581525060096000600354815260200190815260200160002060008201518160000160006101000a81548173ffffffffffffffffffffffffffffffffffffffff021916908373ffffffffffffffffffffffffffffffffffffffff1602179055506020820151816001015560408201518160020160006101000a81548160ff02191690831515021790555090505060016007600087815260200190815260200160002060020160008282546107809190612087565b92505081905550600061079287611191565b90507f252279161106e7d0870081b0e82909a852b6e94744c1bab6af35b429d40cacff86600354600760008a8152602001908152602001600020600201546040516107df939291906120bb565b60405180910390a1600360008154809291906107fa90611f41565b919050555080600160035461080f91906120f2565b945094505050509250929050565b60003360056000600154815260200190815260200160002060006101000a81548173ffffffffffffffffffffffffffffffffffffffff021916908373ffffffffffffffffffffffffffffffffffffffff1602179055506040518060e00160405280848152602001600154815260200183600181111561089f5761089e611adb565b5b8152602001600060028111156108b8576108b7611adb565b5b81526020013373ffffffffffffffffffffffffffffffffffffffff168152602001600081526020016000815250600460006001548152602001908152602001600020600082015181600001908161090f9190611dd7565b506020820151816001015560408201518160020160006101000a81548160ff0219169083600181111561094557610944611adb565b5b021790555060608201518160020160016101000a81548160ff0219169083600281111561097557610974611adb565b5b021790555060808201518160020160026101000a81548173ffffffffffffffffffffffffffffffffffffffff021916908373ffffffffffffffffffffffffffffffffffffffff16021790555060a0820151816003015560c082015181600401559050507f39d4ce5236a0a870383291c28b5fd72910cf31f3d1d8aa3db29d1539aebe19ac3384600154604051610a0d93929190612167565b60405180910390a160016000815480929190610a2890611f41565b91905055905092915050565b813373ffffffffffffffffffffffffffffffffffffffff166005600083815260200190815260200160002060009054906101000a900473ffffffffffffffffffffffffffffffffffffffff1673ffffffffffffffffffffffffffffffffffffffff1614610ad6576040517f08c379a0000000000000000000000000000000000000000000000000000000008152600401610acd90611abb565b60405180910390fd5b8260006002811115610aeb57610aea611adb565b5b6004600083815260200190815260200160002060020160019054906101000a900460ff166002811115610b2157610b20611adb565b5b14610b61576040517f08c379a0000000000000000000000000000000000000000000000000000000008152600401610b5890611b7c565b60405180910390fd5b60016004600086815260200190815260200160002060020160016101000a81548160ff02191690836002811115610b9b57610b9a611adb565b5b02179055504260046000868152602001908152602001600020600301819055508242610bc79190612087565b60046000868152602001908152602001600020600401819055507fc589d1cda1ad3bbd8cf562e4bb5a366053da38d163e726e176f771941710efe6600160046000878152602001908152602001600020600301546004600088815260200190815260200160002060040154604051610c41939291906121ed565b60405180910390a150505050565b60608160016002811115610c6657610c65611adb565b5b6004600083815260200190815260200160002060020160019054906101000a900460ff166002811115610c9c57610c9b611adb565b5b14610cdc576040517f08c379a0000000000000000000000000000000000000000000000000000000008152600401610cd390611ffb565b60405180910390fd5b60026004600085815260200190815260200160002060020160016101000a81548160ff02191690836002811115610d1657610d15611adb565b5b0217905550610d2483611191565b915050919050565b8060006002811115610d4157610d40611adb565b5b6004600083815260200190815260200160002060020160019054906101000a900460ff166002811115610d7757610d76611adb565b5b14610db7576040517f08c379a0000000000000000000000000000000000000000000000000000000008152600401610dae90611b7c565b60405180910390fd5b6004600083815260200190815260200160002060008082016000610ddb91906114f8565b60018201600090556002820160006101000a81549060ff02191690556002820160016101000a81549060ff02191690556002820160026101000a81549073ffffffffffffffffffffffffffffffffffffffff02191690556003820160009055600482016000905550506005600083815260200190815260200160002060006101000a81549073ffffffffffffffffffffffffffffffffffffffff02191690557fc7593cf2a53074cc235e79fbf97b76bf3b7c0c6215979aeccbc28dfb9dbb87db82604051610ea99190611750565b60405180910390a15050565b813373ffffffffffffffffffffffffffffffffffffffff166005600083815260200190815260200160002060009054906101000a900473ffffffffffffffffffffffffffffffffffffffff1673ffffffffffffffffffffffffffffffffffffffff1614610f57576040517f08c379a0000000000000000000000000000000000000000000000000000000008152600401610f4e90611abb565b60405180910390fd5b8260006002811115610f6c57610f6b611adb565b5b6004600083815260200190815260200160002060020160019054906101000a900460ff166002811115610fa257610fa1611adb565b5b14610fe2576040517f08c379a0000000000000000000000000000000000000000000000000000000008152600401610fd990611b7c565b60405180910390fd5b60066000858152602001908152602001600020838154811061100757611006611bfc565b5b90600052602060002090600402016000808201600061102691906114f8565b6001820160009055600282016000905560038201600090555050600760008481526020019081526020016000206000808201600061106491906114f8565b60018201600090556002820160009055600382016000905550507f73338892bac1ae4fd633cd39cc59e0d9ebfd9759dd893c01eec00b1a54237431836040516110ad9190611750565b60405180910390a150505050565b60008251905060005b8181101561118b57826040516020016110dd9190612260565b6040516020818303038152906040528051906020012084828151811061110657611105611bfc565b5b6020026020010151600001516040516020016111229190612260565b6040516020818303038152906040528051906020012003611178576040517f08c379a000000000000000000000000000000000000000000000000000000000815260040161116f906122e9565b60405180910390fd5b808061118390611f41565b9150506110c4565b50505050565b6060600060066000848152602001908152602001600020805480602002602001604051908101604052809291908181526020016000905b828210156112aa57838290600052602060002090600402016040518060800160405290816000820180546111fb90611bcb565b80601f016020809104026020016040519081016040528092919081815260200182805461122790611bcb565b80156112745780601f1061124957610100808354040283529160200191611274565b820191906000526020600020905b81548152906001019060200180831161125757829003601f168201915b505050505081526020016001820154815260200160028201548152602001600382015481525050815260200190600101906111c8565b50505050905060005b81518110156113bb5760006001826112cb9190612087565b90505b82518110156113a7578281815181106112ea576112e9611bfc565b5b60200260200101516040015183838151811061130957611308611bfc565b5b60200260200101516040015110156113945760008383815181106113305761132f611bfc565b5b6020026020010151905083828151811061134d5761134c611bfc565b5b602002602001015184848151811061136857611367611bfc565b5b60200260200101819052508084838151811061138757611386611bfc565b5b6020026020010181905250505b808061139f90611f41565b9150506112ce565b5080806113b390611f41565b9150506112b3565b506001816000815181106113d2576113d1611bfc565b5b602002602001015160600181815250506000600190506000600190505b82518110156114b6578260018261140691906120f2565b8151811061141757611416611bfc565b5b60200260200101516040015183828151811061143657611435611bfc565b5b60200260200101516040015103611470578183828151811061145b5761145a611bfc565b5b602002602001015160600181815250506114a3565b818061147b90611f41565b9250508183828151811061149257611491611bfc565b5b602002602001015160600181815250505b80806114ae90611f41565b9150506113ef565b507f6a1bfe9e34d1bf078c47e8d0eeaeb9a2faaea3a2441ec124934aceee6b0f7a3f826040516114e69190611a3c565b60405180910390a18192505050919050565b50805461150490611bcb565b6000825580601f106115165750611535565b601f0160209004906000526020600020908101906115349190611538565b5b50565b5b80821115611551576000816000905550600101611539565b5090565b6000604051905090565b600080fd5b600080fd5b6000819050919050565b61157c81611569565b811461158757600080fd5b50565b60008135905061159981611573565b92915050565b600080fd5b600080fd5b6000601f19601f8301169050919050565b7f4e487b7100000000000000000000000000000000000000000000000000000000600052604160045260246000fd5b6115f2826115a9565b810181811067ffffffffffffffff82111715611611576116106115ba565b5b80604052505050565b6000611624611555565b905061163082826115e9565b919050565b600067ffffffffffffffff8211156116505761164f6115ba565b5b611659826115a9565b9050602081019050919050565b82818337600083830152505050565b600061168861168384611635565b61161a565b9050828152602081018484840111156116a4576116a36115a4565b5b6116af848285611666565b509392505050565b600082601f8301126116cc576116cb61159f565b5b81356116dc848260208601611675565b91505092915050565b600080604083850312156116fc576116fb61155f565b5b600061170a8582860161158a565b925050602083013567ffffffffffffffff81111561172b5761172a611564565b5b611737858286016116b7565b9150509250929050565b61174a81611569565b82525050565b60006020820190506117656000830184611741565b92915050565b600080604083850312156117825761178161155f565b5b60006117908582860161158a565b92505060206117a18582860161158a565b9150509250929050565b600081519050919050565b600082825260208201905092915050565b6000819050602082019050919050565b600081519050919050565b600082825260208201905092915050565b60005b838110156118115780820151818401526020810190506117f6565b60008484015250505050565b6000611828826117d7565b61183281856117e2565b93506118428185602086016117f3565b61184b816115a9565b840191505092915050565b61185f81611569565b82525050565b60006080830160008301518482036000860152611882828261181d565b91505060208301516118976020860182611856565b5060408301516118aa6040860182611856565b5060608301516118bd6060860182611856565b508091505092915050565b60006118d48383611865565b905092915050565b6000602082019050919050565b60006118f4826117ab565b6118fe81856117b6565b935083602082028501611910856117c7565b8060005b8581101561194c578484038952815161192d85826118c8565b9450611938836118dc565b925060208a01995050600181019050611914565b50829750879550505050505092915050565b6000604082019050818103600083015261197881856118e9565b90506119876020830184611741565b9392505050565b6002811061199b57600080fd5b50565b6000813590506119ad8161198e565b92915050565b600080604083850312156119ca576119c961155f565b5b600083013567ffffffffffffffff8111156119e8576119e7611564565b5b6119f4858286016116b7565b9250506020611a058582860161199e565b9150509250929050565b600060208284031215611a2557611a2461155f565b5b6000611a338482850161158a565b91505092915050565b60006020820190508181036000830152611a5681846118e9565b905092915050565b600082825260208201905092915050565b7f4e6f7420612063726561746f72206f66207468697320766f74696e6700000000600082015250565b6000611aa5601c83611a5e565b9150611ab082611a6f565b602082019050919050565b60006020820190508181036000830152611ad481611a98565b9050919050565b7f4e487b7100000000000000000000000000000000000000000000000000000000600052602160045260246000fd5b7f566f74696e672068617320746f20626520696e2073746167652043524541544560008201527f4400000000000000000000000000000000000000000000000000000000000000602082015250565b6000611b66602183611a5e565b9150611b7182611b0a565b604082019050919050565b60006020820190508181036000830152611b9581611b59565b9050919050565b7f4e487b7100000000000000000000000000000000000000000000000000000000600052602260045260246000fd5b60006002820490506001821680611be357607f821691505b602082108103611bf657611bf5611b9c565b5b50919050565b7f4e487b7100000000000000000000000000000000000000000000000000000000600052603260045260246000fd5b60008190508160005260206000209050919050565b60006020601f8301049050919050565b600082821b905092915050565b600060088302611c8d7fffffffffffffffffffffffffffffffffffffffffffffffffffffffffffffffff82611c50565b611c978683611c50565b95508019841693508086168417925050509392505050565b6000819050919050565b6000611cd4611ccf611cca84611569565b611caf565b611569565b9050919050565b6000819050919050565b611cee83611cb9565b611d02611cfa82611cdb565b848454611c5d565b825550505050565b600090565b611d17611d0a565b611d22818484611ce5565b505050565b5b81811015611d4657611d3b600082611d0f565b600181019050611d28565b5050565b601f821115611d8b57611d5c81611c2b565b611d6584611c40565b81016020851015611d74578190505b611d88611d8085611c40565b830182611d27565b50505b505050565b600082821c905092915050565b6000611dae60001984600802611d90565b1980831691505092915050565b6000611dc78383611d9d565b9150826002028217905092915050565b611de0826117d7565b67ffffffffffffffff811115611df957611df86115ba565b5b611e038254611bcb565b611e0e828285611d4a565b600060209050601f831160018114611e415760008415611e2f578287015190505b611e398582611dbb565b865550611ea1565b601f198416611e4f86611c2b565b60005b82811015611e7757848901518255600182019150602085019450602081019050611e52565b86831015611e945784890151611e90601f891682611d9d565b8355505b6001600288020188555050505b505050505050565b6000611eb4826117d7565b611ebe8185611a5e565b9350611ece8185602086016117f3565b611ed7816115a9565b840191505092915050565b6000604082019050611ef76000830185611741565b8181036020830152611f098184611ea9565b90509392505050565b7f4e487b7100000000000000000000000000000000000000000000000000000000600052601160045260246000fd5b6000611f4c82611569565b91507fffffffffffffffffffffffffffffffffffffffffffffffffffffffffffffffff8203611f7e57611f7d611f12565b5b600182019050919050565b7f566f74696e672068617320746f20626520696e2073746167652053544152544560008201527f4400000000000000000000000000000000000000000000000000000000000000602082015250565b6000611fe5602183611a5e565b9150611ff082611f89565b604082019050919050565b6000602082019050818103600083015261201481611fd8565b9050919050565b7f54696d65206f6620766f74696e6720686173206265656e2066696e6973686564600082015250565b6000612051602083611a5e565b915061205c8261201b565b602082019050919050565b6000602082019050818103600083015261208081612044565b9050919050565b600061209282611569565b915061209d83611569565b92508282019050808211156120b5576120b4611f12565b5b92915050565b60006060820190506120d06000830186611741565b6120dd6020830185611741565b6120ea6040830184611741565b949350505050565b60006120fd82611569565b915061210883611569565b92508282039050818111156121205761211f611f12565b5b92915050565b600073ffffffffffffffffffffffffffffffffffffffff82169050919050565b600061215182612126565b9050919050565b61216181612146565b82525050565b600060608201905061217c6000830186612158565b818103602083015261218e8185611ea9565b905061219d6040830184611741565b949350505050565b600381106121b6576121b5611adb565b5b50565b60008190506121c7826121a5565b919050565b60006121d7826121b9565b9050919050565b6121e7816121cc565b82525050565b600060608201905061220260008301866121de565b61220f6020830185611741565b61221c6040830184611741565b949350505050565b600081905092915050565b600061223a826117d7565b6122448185612224565b93506122548185602086016117f3565b80840191505092915050565b600061226c828461222f565b915081905092915050565b7f596f752063616e277420616464207468652073616d652063616e64696461746560008201527f2074776963650000000000000000000000000000000000000000000000000000602082015250565b60006122d3602683611a5e565b91506122de82612277565b604082019050919050565b60006020820190508181036000830152612302816122c6565b905091905056fea264697066735822122099ee65b8c8b503a04cf98ecd9a859f3478f627cdc60c41ad47c7a08f55c0fa7964736f6c63430008110033",
  "linkReferences": {},
  "deployedLinkReferences": {}
}