{
  "_format": "hh-sol-artifact-1",
  "contractName": "VotingProject",
  "sourceName": "contracts/VotingProject.sol",
  "abi": [
    {
      "inputs": [],
      "stateMutability": "nonpayable",
      "type": "constructor"
    },
    {
      "anonymous": false,
      "inputs": [
        {
          "indexed": false,
          "internalType": "address",
          "name": "creator",
          "type": "address"
        },
        {
          "indexed": false,
          "internalType": "string",
          "name": "votingName",
          "type": "string"
        },
        {
          "indexed": false,
          "internalType": "uint256",
          "name": "id",
          "type": "uint256"
        }
      ],
      "name": "AddAnVotingEvent",
      "type": "event"
    },
    {
      "anonymous": false,
      "inputs": [
        {
          "indexed": false,
          "internalType": "uint256",
          "name": "votingId",
          "type": "uint256"
        },
        {
          "indexed": false,
          "internalType": "string",
          "name": "nameCandidate",
          "type": "string"
        }
      ],
      "name": "AddCandidateEvent",
      "type": "event"
    },
    {
      "anonymous": false,
      "inputs": [
        {
          "indexed": false,
          "internalType": "address",
          "name": "ownerAddress",
          "type": "address"
        }
      ],
      "name": "DeployedOwnerEvent",
      "type": "event"
    },
    {
      "anonymous": false,
      "inputs": [
        {
          "components": [
            {
              "internalType": "string",
              "name": "name",
              "type": "string"
            },
            {
              "internalType": "uint256",
              "name": "id",
              "type": "uint256"
            },
            {
              "internalType": "uint256",
              "name": "voteCounter",
              "type": "uint256"
            }
          ],
          "indexed": false,
          "internalType": "struct VotingProject.Candidate[]",
          "name": "candidates",
          "type": "tuple[]"
        }
      ],
      "name": "RecalculationPositionsEvent",
      "type": "event"
    },
    {
      "anonymous": false,
      "inputs": [
        {
          "indexed": false,
          "internalType": "uint256",
          "name": "candidateId",
          "type": "uint256"
        }
      ],
      "name": "RemoveCandidateEvent",
      "type": "event"
    },
    {
      "anonymous": false,
      "inputs": [
        {
          "indexed": false,
          "internalType": "uint256",
          "name": "votingId",
          "type": "uint256"
        }
      ],
      "name": "RemoveVotingEvent",
      "type": "event"
    },
    {
      "anonymous": false,
      "inputs": [
        {
          "indexed": false,
          "internalType": "enum VotingProject.StagesOfVoting",
          "name": "stagesOfVoting",
          "type": "uint8"
        },
        {
          "indexed": false,
          "internalType": "uint256",
          "name": "startTime",
          "type": "uint256"
        },
        {
          "indexed": false,
          "internalType": "uint256",
          "name": "finishTime",
          "type": "uint256"
        }
      ],
      "name": "StartVotingEvent",
      "type": "event"
    },
    {
      "anonymous": false,
      "inputs": [
        {
          "indexed": false,
          "internalType": "uint256",
          "name": "candidateId",
          "type": "uint256"
        },
        {
          "indexed": false,
          "internalType": "address",
          "name": "voterAddr",
          "type": "address"
        },
        {
          "indexed": false,
          "internalType": "uint256",
          "name": "candidateVoteCounter",
          "type": "uint256"
        }
      ],
      "name": "ToVoteEvent",
      "type": "event"
    },
    {
      "inputs": [
        {
          "internalType": "uint256",
          "name": "_votingId",
          "type": "uint256"
        },
        {
          "internalType": "string",
          "name": "_nameCandidate",
          "type": "string"
        }
      ],
      "name": "addCandidate",
      "outputs": [
        {
          "internalType": "uint256",
          "name": "",
          "type": "uint256"
        }
      ],
      "stateMutability": "nonpayable",
      "type": "function"
    },
    {
      "inputs": [
        {
          "internalType": "string",
          "name": "_nameVoting",
          "type": "string"
        },
        {
          "internalType": "enum VotingProject.TypeOfVoting",
          "name": "_votingType",
          "type": "uint8"
        }
      ],
      "name": "createVoting",
      "outputs": [
        {
          "internalType": "uint256",
          "name": "",
          "type": "uint256"
        }
      ],
      "stateMutability": "nonpayable",
      "type": "function"
    },
    {
      "inputs": [
        {
          "internalType": "uint256",
          "name": "_votingId",
          "type": "uint256"
        }
      ],
      "name": "finishVoting",
      "outputs": [
        {
          "internalType": "bool",
          "name": "",
          "type": "bool"
        }
      ],
      "stateMutability": "nonpayable",
      "type": "function"
    },
    {
      "inputs": [
        {
          "internalType": "uint256",
          "name": "_votingId",
          "type": "uint256"
        },
        {
          "internalType": "uint256",
          "name": "_candidateId",
          "type": "uint256"
        }
      ],
      "name": "removeCandidate",
      "outputs": [
        {
          "internalType": "bool",
          "name": "",
          "type": "bool"
        }
      ],
      "stateMutability": "nonpayable",
      "type": "function"
    },
    {
      "inputs": [
        {
          "internalType": "uint256",
          "name": "_votingId",
          "type": "uint256"
        }
      ],
      "name": "removeVoting",
      "outputs": [
        {
          "internalType": "bool",
          "name": "",
          "type": "bool"
        }
      ],
      "stateMutability": "nonpayable",
      "type": "function"
    },
    {
      "inputs": [
        {
          "internalType": "uint256",
          "name": "_votingId",
          "type": "uint256"
        },
        {
          "internalType": "uint256",
          "name": "finishTime",
          "type": "uint256"
        }
      ],
      "name": "startVoting",
      "outputs": [
        {
          "internalType": "bool",
          "name": "",
          "type": "bool"
        }
      ],
      "stateMutability": "nonpayable",
      "type": "function"
    },
    {
      "inputs": [
        {
          "internalType": "uint256",
          "name": "_votingId",
          "type": "uint256"
        },
        {
          "internalType": "uint256",
          "name": "_candidateId",
          "type": "uint256"
        }
      ],
      "name": "toVote",
      "outputs": [
        {
          "internalType": "bool",
          "name": "",
          "type": "bool"
        }
      ],
      "stateMutability": "nonpayable",
      "type": "function"
    }
  ],
  "bytecode": "0x6080604052600060015560006002553480156200001b57600080fd5b50336000806101000a81548173ffffffffffffffffffffffffffffffffffffffff021916908373ffffffffffffffffffffffffffffffffffffffff1602179055507f322241bf75f4ac490909c070268a9a8bb209f87220238d7922d1378290ffe0f160008054906101000a900473ffffffffffffffffffffffffffffffffffffffff16604051620000ad919062000100565b60405180910390a16200011d565b600073ffffffffffffffffffffffffffffffffffffffff82169050919050565b6000620000e882620000bb565b9050919050565b620000fa81620000db565b82525050565b6000602082019050620001176000830184620000ef565b92915050565b611b29806200012d6000396000f3fe608060405234801561001057600080fd5b506004361061007d5760003560e01c806390fe56091161005b57806390fe560914610112578063abe7c08e14610142578063e61452fc14610172578063fa901afa146101a25761007d565b80631750a3d0146100825780632438f244146100b257806357f1dbce146100e2575b600080fd5b61009c6004803603810190610097919061111f565b6101d2565b6040516100a9919061118a565b60405180910390f35b6100cc60048036038101906100c791906111a5565b6103bb565b6040516100d99190611200565b60405180910390f35b6100fc60048036038101906100f79190611240565b610646565b604051610109919061118a565b60405180910390f35b61012c600480360381019061012791906111a5565b61085d565b6040516101399190611200565b60405180910390f35b61015c6004803603810190610157919061129c565b610a80565b6040516101699190611200565b60405180910390f35b61018c6004803603810190610187919061129c565b610b56565b6040516101999190611200565b60405180910390f35b6101bc60048036038101906101b791906111a5565b610d8a565b6040516101c99190611200565b60405180910390f35b6000823373ffffffffffffffffffffffffffffffffffffffff166004600083815260200190815260200160002060009054906101000a900473ffffffffffffffffffffffffffffffffffffffff1673ffffffffffffffffffffffffffffffffffffffff1614610276576040517f08c379a000000000000000000000000000000000000000000000000000000000815260040161026d90611326565b60405180910390fd5b836000600281111561028b5761028a611346565b5b6003600083815260200190815260200160002060020160019054906101000a900460ff1660028111156102c1576102c0611346565b5b14610301576040517f08c379a00000000000000000000000000000000000000000000000000000000081526004016102f8906113e7565b60405180910390fd5b6040518060600160405280858152602001600254815260200160008152506005600060025481526020019081526020016000206000820151816000019081610349919061161e565b5060208201518160010155604082015181600201559050507f160aeed798f99578d28746e86163e89a8fa871c5e565e1d7e69c52e7721d778d8585604051610392929190611753565b60405180910390a1600260008154809291906103ad906117b2565b919050559250505092915050565b600082600160028111156103d2576103d1611346565b5b6003600083815260200190815260200160002060020160019054906101000a900460ff16600281111561040857610407611346565b5b14610448576040517f08c379a000000000000000000000000000000000000000000000000000000000815260040161043f9061186c565b60405180910390fd5b83600360008281526020019081526020016000206004015442106104a1576040517f08c379a0000000000000000000000000000000000000000000000000000000008152600401610498906118d8565b60405180910390fd5b60001515600660003373ffffffffffffffffffffffffffffffffffffffff1673ffffffffffffffffffffffffffffffffffffffff16815260200190815260200160002060010160009054906101000a900460ff16151514610537576040517f08c379a000000000000000000000000000000000000000000000000000000000815260040161052e9061196a565b60405180910390fd5b604051806040016040528085815260200160011515815250600660003373ffffffffffffffffffffffffffffffffffffffff1673ffffffffffffffffffffffffffffffffffffffff1681526020019081526020016000206000820151816000015560208201518160010160006101000a81548160ff02191690831515021790555090505060016005600086815260200190815260200160002060020160008282546105e2919061198a565b925050819055507f80044f225dc95bde52668958512a8da21d8631d05515b1a15f1f8bc913788d3384336005600088815260200190815260200160002060020154604051610632939291906119ff565b60405180910390a160019250505092915050565b60003360046000600154815260200190815260200160002060006101000a81548173ffffffffffffffffffffffffffffffffffffffff021916908373ffffffffffffffffffffffffffffffffffffffff1602179055506040518060e0016040528084815260200160015481526020018360018111156106c8576106c7611346565b5b8152602001600060028111156106e1576106e0611346565b5b81526020013373ffffffffffffffffffffffffffffffffffffffff1681526020016000815260200160008152506003600060015481526020019081526020016000206000820151816000019081610738919061161e565b506020820151816001015560408201518160020160006101000a81548160ff0219169083600181111561076e5761076d611346565b5b021790555060608201518160020160016101000a81548160ff0219169083600281111561079e5761079d611346565b5b021790555060808201518160020160026101000a81548173ffffffffffffffffffffffffffffffffffffffff021916908373ffffffffffffffffffffffffffffffffffffffff16021790555060a0820151816003015560c082015181600401559050507f39d4ce5236a0a870383291c28b5fd72910cf31f3d1d8aa3db29d1539aebe19ac338460015460405161083693929190611a36565b60405180910390a160016000815480929190610851906117b2565b91905055905092915050565b6000823373ffffffffffffffffffffffffffffffffffffffff166004600083815260200190815260200160002060009054906101000a900473ffffffffffffffffffffffffffffffffffffffff1673ffffffffffffffffffffffffffffffffffffffff1614610901576040517f08c379a00000000000000000000000000000000000000000000000000000000081526004016108f890611326565b60405180910390fd5b836000600281111561091657610915611346565b5b6003600083815260200190815260200160002060020160019054906101000a900460ff16600281111561094c5761094b611346565b5b1461098c576040517f08c379a0000000000000000000000000000000000000000000000000000000008152600401610983906113e7565b60405180910390fd5b60016003600087815260200190815260200160002060020160016101000a81548160ff021916908360028111156109c6576109c5611346565b5b021790555042600360008781526020019081526020016000206003018190555083426109f2919061198a565b60036000878152602001908152602001600020600401819055507fc589d1cda1ad3bbd8cf562e4bb5a366053da38d163e726e176f771941710efe6600160036000888152602001908152602001600020600301546003600089815260200190815260200160002060040154604051610a6c93929190611abc565b60405180910390a160019250505092915050565b60008160016002811115610a9757610a96611346565b5b6003600083815260200190815260200160002060020160019054906101000a900460ff166002811115610acd57610acc611346565b5b14610b0d576040517f08c379a0000000000000000000000000000000000000000000000000000000008152600401610b049061186c565b60405180910390fd5b60026003600085815260200190815260200160002060020160016101000a81548160ff02191690836002811115610b4757610b46611346565b5b02179055506001915050919050565b60008160006002811115610b6d57610b6c611346565b5b6003600083815260200190815260200160002060020160019054906101000a900460ff166002811115610ba357610ba2611346565b5b14610be3576040517f08c379a0000000000000000000000000000000000000000000000000000000008152600401610bda906113e7565b60405180910390fd5b823373ffffffffffffffffffffffffffffffffffffffff166004600083815260200190815260200160002060009054906101000a900473ffffffffffffffffffffffffffffffffffffffff1673ffffffffffffffffffffffffffffffffffffffff1614610c85576040517f08c379a0000000000000000000000000000000000000000000000000000000008152600401610c7c90611326565b60405180910390fd5b6003600085815260200190815260200160002060008082016000610ca99190610f32565b60018201600090556002820160006101000a81549060ff02191690556002820160016101000a81549060ff02191690556002820160026101000a81549073ffffffffffffffffffffffffffffffffffffffff02191690556003820160009055600482016000905550506004600085815260200190815260200160002060006101000a81549073ffffffffffffffffffffffffffffffffffffffff02191690557fc7593cf2a53074cc235e79fbf97b76bf3b7c0c6215979aeccbc28dfb9dbb87db84604051610d77919061118a565b60405180910390a1600192505050919050565b6000823373ffffffffffffffffffffffffffffffffffffffff166004600083815260200190815260200160002060009054906101000a900473ffffffffffffffffffffffffffffffffffffffff1673ffffffffffffffffffffffffffffffffffffffff1614610e2e576040517f08c379a0000000000000000000000000000000000000000000000000000000008152600401610e2590611326565b60405180910390fd5b8360006002811115610e4357610e42611346565b5b6003600083815260200190815260200160002060020160019054906101000a900460ff166002811115610e7957610e78611346565b5b14610eb9576040517f08c379a0000000000000000000000000000000000000000000000000000000008152600401610eb0906113e7565b60405180910390fd5b6005600085815260200190815260200160002060008082016000610edd9190610f32565b6001820160009055600282016000905550507f73338892bac1ae4fd633cd39cc59e0d9ebfd9759dd893c01eec00b1a5423743184604051610f1e919061118a565b60405180910390a160019250505092915050565b508054610f3e90611441565b6000825580601f10610f505750610f6f565b601f016020900490600052602060002090810190610f6e9190610f72565b5b50565b5b80821115610f8b576000816000905550600101610f73565b5090565b6000604051905090565b600080fd5b600080fd5b6000819050919050565b610fb681610fa3565b8114610fc157600080fd5b50565b600081359050610fd381610fad565b92915050565b600080fd5b600080fd5b6000601f19601f8301169050919050565b7f4e487b7100000000000000000000000000000000000000000000000000000000600052604160045260246000fd5b61102c82610fe3565b810181811067ffffffffffffffff8211171561104b5761104a610ff4565b5b80604052505050565b600061105e610f8f565b905061106a8282611023565b919050565b600067ffffffffffffffff82111561108a57611089610ff4565b5b61109382610fe3565b9050602081019050919050565b82818337600083830152505050565b60006110c26110bd8461106f565b611054565b9050828152602081018484840111156110de576110dd610fde565b5b6110e98482856110a0565b509392505050565b600082601f83011261110657611105610fd9565b5b81356111168482602086016110af565b91505092915050565b6000806040838503121561113657611135610f99565b5b600061114485828601610fc4565b925050602083013567ffffffffffffffff81111561116557611164610f9e565b5b611171858286016110f1565b9150509250929050565b61118481610fa3565b82525050565b600060208201905061119f600083018461117b565b92915050565b600080604083850312156111bc576111bb610f99565b5b60006111ca85828601610fc4565b92505060206111db85828601610fc4565b9150509250929050565b60008115159050919050565b6111fa816111e5565b82525050565b600060208201905061121560008301846111f1565b92915050565b6002811061122857600080fd5b50565b60008135905061123a8161121b565b92915050565b6000806040838503121561125757611256610f99565b5b600083013567ffffffffffffffff81111561127557611274610f9e565b5b611281858286016110f1565b92505060206112928582860161122b565b9150509250929050565b6000602082840312156112b2576112b1610f99565b5b60006112c084828501610fc4565b91505092915050565b600082825260208201905092915050565b7f4e6f7420612063726561746f72206f66207468697320766f74696e6700000000600082015250565b6000611310601c836112c9565b915061131b826112da565b602082019050919050565b6000602082019050818103600083015261133f81611303565b9050919050565b7f4e487b7100000000000000000000000000000000000000000000000000000000600052602160045260246000fd5b7f566f74696e672068617320746f20626520696e2073746167652043524541544560008201527f4400000000000000000000000000000000000000000000000000000000000000602082015250565b60006113d16021836112c9565b91506113dc82611375565b604082019050919050565b60006020820190508181036000830152611400816113c4565b9050919050565b600081519050919050565b7f4e487b7100000000000000000000000000000000000000000000000000000000600052602260045260246000fd5b6000600282049050600182168061145957607f821691505b60208210810361146c5761146b611412565b5b50919050565b60008190508160005260206000209050919050565b60006020601f8301049050919050565b600082821b905092915050565b6000600883026114d47fffffffffffffffffffffffffffffffffffffffffffffffffffffffffffffffff82611497565b6114de8683611497565b95508019841693508086168417925050509392505050565b6000819050919050565b600061151b61151661151184610fa3565b6114f6565b610fa3565b9050919050565b6000819050919050565b61153583611500565b61154961154182611522565b8484546114a4565b825550505050565b600090565b61155e611551565b61156981848461152c565b505050565b5b8181101561158d57611582600082611556565b60018101905061156f565b5050565b601f8211156115d2576115a381611472565b6115ac84611487565b810160208510156115bb578190505b6115cf6115c785611487565b83018261156e565b50505b505050565b600082821c905092915050565b60006115f5600019846008026115d7565b1980831691505092915050565b600061160e83836115e4565b9150826002028217905092915050565b61162782611407565b67ffffffffffffffff8111156116405761163f610ff4565b5b61164a8254611441565b611655828285611591565b600060209050601f8311600181146116885760008415611676578287015190505b6116808582611602565b8655506116e8565b601f19841661169686611472565b60005b828110156116be57848901518255600182019150602085019450602081019050611699565b868310156116db57848901516116d7601f8916826115e4565b8355505b6001600288020188555050505b505050505050565b60005b8381101561170e5780820151818401526020810190506116f3565b60008484015250505050565b600061172582611407565b61172f81856112c9565b935061173f8185602086016116f0565b61174881610fe3565b840191505092915050565b6000604082019050611768600083018561117b565b818103602083015261177a818461171a565b90509392505050565b7f4e487b7100000000000000000000000000000000000000000000000000000000600052601160045260246000fd5b60006117bd82610fa3565b91507fffffffffffffffffffffffffffffffffffffffffffffffffffffffffffffffff82036117ef576117ee611783565b5b600182019050919050565b7f566f74696e672068617320746f20626520696e2073746167652053544152544560008201527f4400000000000000000000000000000000000000000000000000000000000000602082015250565b60006118566021836112c9565b9150611861826117fa565b604082019050919050565b6000602082019050818103600083015261188581611849565b9050919050565b7f54696d65206f6620766f74696e6720686173206265656e2066696e6973686564600082015250565b60006118c26020836112c9565b91506118cd8261188c565b602082019050919050565b600060208201905081810360008301526118f1816118b5565b9050919050565b7f4974206973206e6f742074686520666972737420766f74696e67206f6620746860008201527f697320766f746572000000000000000000000000000000000000000000000000602082015250565b60006119546028836112c9565b915061195f826118f8565b604082019050919050565b6000602082019050818103600083015261198381611947565b9050919050565b600061199582610fa3565b91506119a083610fa3565b92508282019050808211156119b8576119b7611783565b5b92915050565b600073ffffffffffffffffffffffffffffffffffffffff82169050919050565b60006119e9826119be565b9050919050565b6119f9816119de565b82525050565b6000606082019050611a14600083018661117b565b611a2160208301856119f0565b611a2e604083018461117b565b949350505050565b6000606082019050611a4b60008301866119f0565b8181036020830152611a5d818561171a565b9050611a6c604083018461117b565b949350505050565b60038110611a8557611a84611346565b5b50565b6000819050611a9682611a74565b919050565b6000611aa682611a88565b9050919050565b611ab681611a9b565b82525050565b6000606082019050611ad16000830186611aad565b611ade602083018561117b565b611aeb604083018461117b565b94935050505056fea264697066735822122033754a9bdbc96f45aa85cccffa48a65f86fd9ee0f61e6dbcd4ad69ea4cff77ad64736f6c63430008110033",
  "linkReferences": {},
  "deployedLinkReferences": {}
}